{
  "contractName": "Token",
  "abi": [
    {
      "inputs": [],
      "stateMutability": "nonpayable",
      "type": "constructor"
    },
    {
      "anonymous": false,
      "inputs": [
        {
          "indexed": true,
          "internalType": "address",
          "name": "owner",
          "type": "address"
        },
        {
          "indexed": true,
          "internalType": "address",
          "name": "spender",
          "type": "address"
        },
        {
          "indexed": false,
          "internalType": "uint256",
          "name": "value",
          "type": "uint256"
        }
      ],
      "name": "Approval",
      "type": "event"
    },
    {
      "anonymous": false,
      "inputs": [
        {
          "indexed": true,
          "internalType": "address",
          "name": "from",
          "type": "address"
        },
        {
          "indexed": true,
          "internalType": "address",
          "name": "to",
          "type": "address"
        },
        {
          "indexed": false,
          "internalType": "uint256",
          "name": "value",
          "type": "uint256"
        }
      ],
      "name": "Transfer",
      "type": "event"
    },
    {
      "inputs": [],
      "name": "admin",
      "outputs": [
        {
          "internalType": "address",
          "name": "",
          "type": "address"
        }
      ],
      "stateMutability": "view",
      "type": "function",
      "constant": true
    },
    {
      "inputs": [
        {
          "internalType": "address",
          "name": "owner",
          "type": "address"
        },
        {
          "internalType": "address",
          "name": "spender",
          "type": "address"
        }
      ],
      "name": "allowance",
      "outputs": [
        {
          "internalType": "uint256",
          "name": "",
          "type": "uint256"
        }
      ],
      "stateMutability": "view",
      "type": "function",
      "constant": true
    },
    {
      "inputs": [
        {
          "internalType": "address",
          "name": "spender",
          "type": "address"
        },
        {
          "internalType": "uint256",
          "name": "amount",
          "type": "uint256"
        }
      ],
      "name": "approve",
      "outputs": [
        {
          "internalType": "bool",
          "name": "",
          "type": "bool"
        }
      ],
      "stateMutability": "nonpayable",
      "type": "function"
    },
    {
      "inputs": [
        {
          "internalType": "address",
          "name": "account",
          "type": "address"
        }
      ],
      "name": "balanceOf",
      "outputs": [
        {
          "internalType": "uint256",
          "name": "",
          "type": "uint256"
        }
      ],
      "stateMutability": "view",
      "type": "function",
      "constant": true
    },
    {
      "inputs": [],
      "name": "decimals",
      "outputs": [
        {
          "internalType": "uint8",
          "name": "",
          "type": "uint8"
        }
      ],
      "stateMutability": "view",
      "type": "function",
      "constant": true
    },
    {
      "inputs": [
        {
          "internalType": "address",
          "name": "spender",
          "type": "address"
        },
        {
          "internalType": "uint256",
          "name": "subtractedValue",
          "type": "uint256"
        }
      ],
      "name": "decreaseAllowance",
      "outputs": [
        {
          "internalType": "bool",
          "name": "",
          "type": "bool"
        }
      ],
      "stateMutability": "nonpayable",
      "type": "function"
    },
    {
      "inputs": [
        {
          "internalType": "address",
          "name": "spender",
          "type": "address"
        },
        {
          "internalType": "uint256",
          "name": "addedValue",
          "type": "uint256"
        }
      ],
      "name": "increaseAllowance",
      "outputs": [
        {
          "internalType": "bool",
          "name": "",
          "type": "bool"
        }
      ],
      "stateMutability": "nonpayable",
      "type": "function"
    },
    {
      "inputs": [],
      "name": "name",
      "outputs": [
        {
          "internalType": "string",
          "name": "",
          "type": "string"
        }
      ],
      "stateMutability": "view",
      "type": "function",
      "constant": true
    },
    {
      "inputs": [],
      "name": "symbol",
      "outputs": [
        {
          "internalType": "string",
          "name": "",
          "type": "string"
        }
      ],
      "stateMutability": "view",
      "type": "function",
      "constant": true
    },
    {
      "inputs": [],
      "name": "totalSupply",
      "outputs": [
        {
          "internalType": "uint256",
          "name": "",
          "type": "uint256"
        }
      ],
      "stateMutability": "view",
      "type": "function",
      "constant": true
    },
    {
      "inputs": [
        {
          "internalType": "address",
          "name": "recipient",
          "type": "address"
        },
        {
          "internalType": "uint256",
          "name": "amount",
          "type": "uint256"
        }
      ],
      "name": "transfer",
      "outputs": [
        {
          "internalType": "bool",
          "name": "",
          "type": "bool"
        }
      ],
      "stateMutability": "nonpayable",
      "type": "function"
    },
    {
      "inputs": [
        {
          "internalType": "address",
          "name": "sender",
          "type": "address"
        },
        {
          "internalType": "address",
          "name": "recipient",
          "type": "address"
        },
        {
          "internalType": "uint256",
          "name": "amount",
          "type": "uint256"
        }
      ],
      "name": "transferFrom",
      "outputs": [
        {
          "internalType": "bool",
          "name": "",
          "type": "bool"
        }
      ],
      "stateMutability": "nonpayable",
      "type": "function"
    }
  ],
  "bytecode": "0x60806040523480156200001157600080fd5b506040518060400160405280601381526020017f466f72204d6f636163656e6b6f20546f6b656e000000000000000000000000008152506040518060400160405280600381526020017f464d54000000000000000000000000000000000000000000000000000000000081525081600390805190602001906200009692919062000297565b508060049080519060200190620000af92919062000297565b505050620000cd33683635c9adc5dea000006200011460201b60201c565b33600560006101000a81548173ffffffffffffffffffffffffffffffffffffffff021916908373ffffffffffffffffffffffffffffffffffffffff160217905550620004e5565b600073ffffffffffffffffffffffffffffffffffffffff168273ffffffffffffffffffffffffffffffffffffffff16141562000187576040517f08c379a00000000000000000000000000000000000000000000000000000000081526004016200017e906200039a565b60405180910390fd5b6200019b600083836200028d60201b60201c565b8060026000828254620001af9190620003ea565b92505081905550806000808473ffffffffffffffffffffffffffffffffffffffff1673ffffffffffffffffffffffffffffffffffffffff1681526020019081526020016000206000828254620002069190620003ea565b925050819055508173ffffffffffffffffffffffffffffffffffffffff16600073ffffffffffffffffffffffffffffffffffffffff167fddf252ad1be2c89b69c2b068fc378daa952ba7f163c4a11628f55a4df523b3ef836040516200026d9190620003bc565b60405180910390a362000289600083836200029260201b60201c565b5050565b505050565b505050565b828054620002a59062000451565b90600052602060002090601f016020900481019282620002c9576000855562000315565b82601f10620002e457805160ff191683800117855562000315565b8280016001018555821562000315579182015b8281111562000314578251825591602001919060010190620002f7565b5b50905062000324919062000328565b5090565b5b808211156200034357600081600090555060010162000329565b5090565b600062000356601f83620003d9565b91507f45524332303a206d696e7420746f20746865207a65726f2061646472657373006000830152602082019050919050565b620003948162000447565b82525050565b60006020820190508181036000830152620003b58162000347565b9050919050565b6000602082019050620003d3600083018462000389565b92915050565b600082825260208201905092915050565b6000620003f78262000447565b9150620004048362000447565b9250827fffffffffffffffffffffffffffffffffffffffffffffffffffffffffffffffff038211156200043c576200043b62000487565b5b828201905092915050565b6000819050919050565b600060028204905060018216806200046a57607f821691505b60208210811415620004815762000480620004b6565b5b50919050565b7f4e487b7100000000000000000000000000000000000000000000000000000000600052601160045260246000fd5b7f4e487b7100000000000000000000000000000000000000000000000000000000600052602260045260246000fd5b6113ba80620004f56000396000f3fe608060405234801561001057600080fd5b50600436106100b45760003560e01c806370a082311161007157806370a08231146101a357806395d89b41146101d3578063a457c2d7146101f1578063a9059cbb14610221578063dd62ed3e14610251578063f851a44014610281576100b4565b806306fdde03146100b9578063095ea7b3146100d757806318160ddd1461010757806323b872dd14610125578063313ce567146101555780633950935114610173575b600080fd5b6100c161029f565b6040516100ce9190611083565b60405180910390f35b6100f160048036038101906100ec9190610cd2565b610331565b6040516100fe9190611068565b60405180910390f35b61010f61034f565b60405161011c9190611185565b60405180910390f35b61013f600480360381019061013a9190610c83565b610359565b60405161014c9190611068565b60405180910390f35b61015d610451565b60405161016a91906111a0565b60405180910390f35b61018d60048036038101906101889190610cd2565b61045a565b60405161019a9190611068565b60405180910390f35b6101bd60048036038101906101b89190610c1e565b610506565b6040516101ca9190611185565b60405180910390f35b6101db61054e565b6040516101e89190611083565b60405180910390f35b61020b60048036038101906102069190610cd2565b6105e0565b6040516102189190611068565b60405180910390f35b61023b60048036038101906102369190610cd2565b6106cb565b6040516102489190611068565b60405180910390f35b61026b60048036038101906102669190610c47565b6106e9565b6040516102789190611185565b60405180910390f35b610289610770565b604051610296919061104d565b60405180910390f35b6060600380546102ae906112b5565b80601f01602080910402602001604051908101604052809291908181526020018280546102da906112b5565b80156103275780601f106102fc57610100808354040283529160200191610327565b820191906000526020600020905b81548152906001019060200180831161030a57829003601f168201915b5050505050905090565b600061034561033e610796565b848461079e565b6001905092915050565b6000600254905090565b6000610366848484610969565b6000600160008673ffffffffffffffffffffffffffffffffffffffff1673ffffffffffffffffffffffffffffffffffffffff16815260200190815260200160002060006103b1610796565b73ffffffffffffffffffffffffffffffffffffffff1673ffffffffffffffffffffffffffffffffffffffff16815260200190815260200160002054905082811015610431576040517f08c379a000000000000000000000000000000000000000000000000000000000815260040161042890611105565b60405180910390fd5b6104458561043d610796565b85840361079e565b60019150509392505050565b60006012905090565b60006104fc610467610796565b848460016000610475610796565b73ffffffffffffffffffffffffffffffffffffffff1673ffffffffffffffffffffffffffffffffffffffff16815260200190815260200160002060008873ffffffffffffffffffffffffffffffffffffffff1673ffffffffffffffffffffffffffffffffffffffff168152602001908152602001600020546104f791906111d7565b61079e565b6001905092915050565b60008060008373ffffffffffffffffffffffffffffffffffffffff1673ffffffffffffffffffffffffffffffffffffffff168152602001908152602001600020549050919050565b60606004805461055d906112b5565b80601f0160208091040260200160405190810160405280929190818152602001828054610589906112b5565b80156105d65780601f106105ab576101008083540402835291602001916105d6565b820191906000526020600020905b8154815290600101906020018083116105b957829003601f168201915b5050505050905090565b600080600160006105ef610796565b73ffffffffffffffffffffffffffffffffffffffff1673ffffffffffffffffffffffffffffffffffffffff16815260200190815260200160002060008573ffffffffffffffffffffffffffffffffffffffff1673ffffffffffffffffffffffffffffffffffffffff168152602001908152602001600020549050828110156106ac576040517f08c379a00000000000000000000000000000000000000000000000000000000081526004016106a390611165565b60405180910390fd5b6106c06106b7610796565b8585840361079e565b600191505092915050565b60006106df6106d8610796565b8484610969565b6001905092915050565b6000600160008473ffffffffffffffffffffffffffffffffffffffff1673ffffffffffffffffffffffffffffffffffffffff16815260200190815260200160002060008373ffffffffffffffffffffffffffffffffffffffff1673ffffffffffffffffffffffffffffffffffffffff16815260200190815260200160002054905092915050565b600560009054906101000a900473ffffffffffffffffffffffffffffffffffffffff1681565b600033905090565b600073ffffffffffffffffffffffffffffffffffffffff168373ffffffffffffffffffffffffffffffffffffffff16141561080e576040517f08c379a000000000000000000000000000000000000000000000000000000000815260040161080590611145565b60405180910390fd5b600073ffffffffffffffffffffffffffffffffffffffff168273ffffffffffffffffffffffffffffffffffffffff16141561087e576040517f08c379a0000000000000000000000000000000000000000000000000000000008152600401610875906110c5565b60405180910390fd5b80600160008573ffffffffffffffffffffffffffffffffffffffff1673ffffffffffffffffffffffffffffffffffffffff16815260200190815260200160002060008473ffffffffffffffffffffffffffffffffffffffff1673ffffffffffffffffffffffffffffffffffffffff168152602001908152602001600020819055508173ffffffffffffffffffffffffffffffffffffffff168373ffffffffffffffffffffffffffffffffffffffff167f8c5be1e5ebec7d5bd14f71427d1e84f3dd0314c0f7b2291e5b200ac8c7c3b9258360405161095c9190611185565b60405180910390a3505050565b600073ffffffffffffffffffffffffffffffffffffffff168373ffffffffffffffffffffffffffffffffffffffff1614156109d9576040517f08c379a00000000000000000000000000000000000000000000000000000000081526004016109d090611125565b60405180910390fd5b600073ffffffffffffffffffffffffffffffffffffffff168273ffffffffffffffffffffffffffffffffffffffff161415610a49576040517f08c379a0000000000000000000000000000000000000000000000000000000008152600401610a40906110a5565b60405180910390fd5b610a54838383610bea565b60008060008573ffffffffffffffffffffffffffffffffffffffff1673ffffffffffffffffffffffffffffffffffffffff16815260200190815260200160002054905081811015610ada576040517f08c379a0000000000000000000000000000000000000000000000000000000008152600401610ad1906110e5565b60405180910390fd5b8181036000808673ffffffffffffffffffffffffffffffffffffffff1673ffffffffffffffffffffffffffffffffffffffff16815260200190815260200160002081905550816000808573ffffffffffffffffffffffffffffffffffffffff1673ffffffffffffffffffffffffffffffffffffffff1681526020019081526020016000206000828254610b6d91906111d7565b925050819055508273ffffffffffffffffffffffffffffffffffffffff168473ffffffffffffffffffffffffffffffffffffffff167fddf252ad1be2c89b69c2b068fc378daa952ba7f163c4a11628f55a4df523b3ef84604051610bd19190611185565b60405180910390a3610be4848484610bef565b50505050565b505050565b505050565b600081359050610c0381611356565b92915050565b600081359050610c188161136d565b92915050565b600060208284031215610c3057600080fd5b6000610c3e84828501610bf4565b91505092915050565b60008060408385031215610c5a57600080fd5b6000610c6885828601610bf4565b9250506020610c7985828601610bf4565b9150509250929050565b600080600060608486031215610c9857600080fd5b6000610ca686828701610bf4565b9350506020610cb786828701610bf4565b9250506040610cc886828701610c09565b9150509250925092565b60008060408385031215610ce557600080fd5b6000610cf385828601610bf4565b9250506020610d0485828601610c09565b9150509250929050565b610d178161122d565b82525050565b610d268161123f565b82525050565b6000610d37826111bb565b610d4181856111c6565b9350610d51818560208601611282565b610d5a81611345565b840191505092915050565b6000610d726023836111c6565b91507f45524332303a207472616e7366657220746f20746865207a65726f206164647260008301527f65737300000000000000000000000000000000000000000000000000000000006020830152604082019050919050565b6000610dd86022836111c6565b91507f45524332303a20617070726f766520746f20746865207a65726f20616464726560008301527f73730000000000000000000000000000000000000000000000000000000000006020830152604082019050919050565b6000610e3e6026836111c6565b91507f45524332303a207472616e7366657220616d6f756e742065786365656473206260008301527f616c616e636500000000000000000000000000000000000000000000000000006020830152604082019050919050565b6000610ea46028836111c6565b91507f45524332303a207472616e7366657220616d6f756e742065786365656473206160008301527f6c6c6f77616e63650000000000000000000000000000000000000000000000006020830152604082019050919050565b6000610f0a6025836111c6565b91507f45524332303a207472616e736665722066726f6d20746865207a65726f20616460008301527f64726573730000000000000000000000000000000000000000000000000000006020830152604082019050919050565b6000610f706024836111c6565b91507f45524332303a20617070726f76652066726f6d20746865207a65726f2061646460008301527f72657373000000000000000000000000000000000000000000000000000000006020830152604082019050919050565b6000610fd66025836111c6565b91507f45524332303a2064656372656173656420616c6c6f77616e63652062656c6f7760008301527f207a65726f0000000000000000000000000000000000000000000000000000006020830152604082019050919050565b6110388161126b565b82525050565b61104781611275565b82525050565b60006020820190506110626000830184610d0e565b92915050565b600060208201905061107d6000830184610d1d565b92915050565b6000602082019050818103600083015261109d8184610d2c565b905092915050565b600060208201905081810360008301526110be81610d65565b9050919050565b600060208201905081810360008301526110de81610dcb565b9050919050565b600060208201905081810360008301526110fe81610e31565b9050919050565b6000602082019050818103600083015261111e81610e97565b9050919050565b6000602082019050818103600083015261113e81610efd565b9050919050565b6000602082019050818103600083015261115e81610f63565b9050919050565b6000602082019050818103600083015261117e81610fc9565b9050919050565b600060208201905061119a600083018461102f565b92915050565b60006020820190506111b5600083018461103e565b92915050565b600081519050919050565b600082825260208201905092915050565b60006111e28261126b565b91506111ed8361126b565b9250827fffffffffffffffffffffffffffffffffffffffffffffffffffffffffffffffff03821115611222576112216112e7565b5b828201905092915050565b60006112388261124b565b9050919050565b60008115159050919050565b600073ffffffffffffffffffffffffffffffffffffffff82169050919050565b6000819050919050565b600060ff82169050919050565b60005b838110156112a0578082015181840152602081019050611285565b838111156112af576000848401525b50505050565b600060028204905060018216806112cd57607f821691505b602082108114156112e1576112e0611316565b5b50919050565b7f4e487b7100000000000000000000000000000000000000000000000000000000600052601160045260246000fd5b7f4e487b7100000000000000000000000000000000000000000000000000000000600052602260045260246000fd5b6000601f19601f8301169050919050565b61135f8161122d565b811461136a57600080fd5b50565b6113768161126b565b811461138157600080fd5b5056fea26469706673582212205283f10249c8ee81ee699ff980731200131c35078b3769f9507a86f5a05ce75764736f6c63430008000033",
  "immutableReferences": {},
  "source": "pragma solidity ^0.8.0;\n\n// import 'https://github.com/OpenZeppelin/openzeppelin-contracts/blob/master/contracts/token/ERC20/ERC20.sol';\n\nimport \"@openzeppelin/contracts/token/ERC20/ERC20.sol\";\n\n\n\n/// @title A title that should describe the contract/interface\n/// @author The name of the author\n/// @notice Explain to an end user what this does\n/// @dev Explain to a developer any extra details\n\ncontract Token is ERC20 {\n  address public admin;\n    constructor() ERC20(\"For Mocacenko Token\", \"FMT\") {\n    _mint(msg.sender, 1000*10**18);\n    admin = msg.sender;\n    \n  }\n\n}",
  "sourcePath": "/home/roman/Sol_Progects/Radchenko_Roman_Solidity_School4/contracts/Token.sol",
  "compiler": {
    "name": "solc",
    "version": "0.8.0+commit.c7dfd78e.Emscripten.clang"
  },
  "schemaVersion": "3.4.1",
  "updatedAt": "2021-08-01T09:10:45.723Z",
  "networkType": "ethereum",
  "devdoc": {
    "author": "The name of the author",
    "details": "Explain to a developer any extra details",
    "kind": "dev",
    "methods": {
      "allowance(address,address)": {
        "details": "See {IERC20-allowance}."
      },
      "approve(address,uint256)": {
        "details": "See {IERC20-approve}. Requirements: - `spender` cannot be the zero address."
      },
      "balanceOf(address)": {
        "details": "See {IERC20-balanceOf}."
      },
      "decimals()": {
        "details": "Returns the number of decimals used to get its user representation. For example, if `decimals` equals `2`, a balance of `505` tokens should be displayed to a user as `5,05` (`505 / 10 ** 2`). Tokens usually opt for a value of 18, imitating the relationship between Ether and Wei. This is the value {ERC20} uses, unless this function is overridden; NOTE: This information is only used for _display_ purposes: it in no way affects any of the arithmetic of the contract, including {IERC20-balanceOf} and {IERC20-transfer}."
      },
      "decreaseAllowance(address,uint256)": {
        "details": "Atomically decreases the allowance granted to `spender` by the caller. This is an alternative to {approve} that can be used as a mitigation for problems described in {IERC20-approve}. Emits an {Approval} event indicating the updated allowance. Requirements: - `spender` cannot be the zero address. - `spender` must have allowance for the caller of at least `subtractedValue`."
      },
      "increaseAllowance(address,uint256)": {
        "details": "Atomically increases the allowance granted to `spender` by the caller. This is an alternative to {approve} that can be used as a mitigation for problems described in {IERC20-approve}. Emits an {Approval} event indicating the updated allowance. Requirements: - `spender` cannot be the zero address."
      },
      "name()": {
        "details": "Returns the name of the token."
      },
      "symbol()": {
        "details": "Returns the symbol of the token, usually a shorter version of the name."
      },
      "totalSupply()": {
        "details": "See {IERC20-totalSupply}."
      },
      "transfer(address,uint256)": {
        "details": "See {IERC20-transfer}. Requirements: - `recipient` cannot be the zero address. - the caller must have a balance of at least `amount`."
      },
      "transferFrom(address,address,uint256)": {
        "details": "See {IERC20-transferFrom}. Emits an {Approval} event indicating the updated allowance. This is not required by the EIP. See the note at the beginning of {ERC20}. Requirements: - `sender` and `recipient` cannot be the zero address. - `sender` must have a balance of at least `amount`. - the caller must have allowance for ``sender``'s tokens of at least `amount`."
      }
    },
    "title": "A title that should describe the contract/interface",
    "version": 1
  },
  "userdoc": {
    "kind": "user",
    "methods": {},
    "notice": "Explain to an end user what this does",
    "version": 1
  }
}